{
  "_format": "hh-sol-artifact-1",
  "contractName": "ColourBoard",
  "sourceName": "contracts/colour.sol",
  "abi": [
    {
      "inputs": [
        {
          "internalType": "uint8",
          "name": "",
          "type": "uint8"
        },
        {
          "internalType": "uint8",
          "name": "",
          "type": "uint8"
        }
      ],
      "name": "cells",
      "outputs": [
        {
          "internalType": "uint8",
          "name": "colour",
          "type": "uint8"
        },
        {
          "internalType": "bool",
          "name": "isOccupied",
          "type": "bool"
        }
      ],
      "stateMutability": "view",
      "type": "function"
    },
    {
      "inputs": [
        {
          "internalType": "uint8",
          "name": "row",
          "type": "uint8"
        },
        {
          "internalType": "uint8",
          "name": "column",
          "type": "uint8"
        }
      ],
      "name": "getColour",
      "outputs": [
        {
          "internalType": "uint8",
          "name": "",
          "type": "uint8"
        }
      ],
      "stateMutability": "view",
      "type": "function"
    },
    {
      "inputs": [],
      "name": "initializeColours",
      "outputs": [],
      "stateMutability": "nonpayable",
      "type": "function"
    }
  ],
  "bytecode": "0x608060405234801561001057600080fd5b50610689806100206000396000f3fe608060405234801561001057600080fd5b50600436106100415760003560e01c80636150926814610046578063e72c421c14610077578063f159fe7114610081575b600080fd5b610060600480360381019061005b9190610398565b6100b1565b60405161006e929190610402565b60405180910390f35b61007f6100fc565b005b61009b60048036038101906100969190610398565b6101e9565b6040516100a8919061042b565b60405180910390f35b6000602052816000526040600020602052806000526040600020600091509150508060000160009054906101000a900460ff16908060000160019054906101000a900460ff16905082565b60005b600560ff168160ff1610156101e65760005b600760ff168160ff1610156101d25761012a828261030d565b6000808460ff1660ff16815260200190815260200160002060008360ff1660ff16815260200190815260200160002060000160006101000a81548160ff021916908360ff16021790555060016000808460ff1660ff16815260200190815260200160002060008360ff1660ff16815260200190815260200160002060000160016101000a81548160ff02191690831515021790555080806101ca90610475565b915050610111565b5080806101de90610475565b9150506100ff565b50565b6000600560ff168360ff161080156102075750600760ff168260ff16105b610246576040517f08c379a000000000000000000000000000000000000000000000000000000000815260040161023d906104fb565b60405180910390fd5b6000808460ff1660ff16815260200190815260200160002060008360ff1660ff16815260200190815260200160002060000160019054906101000a900460ff166102c5576040517f08c379a00000000000000000000000000000000000000000000000000000000081526004016102bc90610567565b60405180910390fd5b6000808460ff1660ff16815260200190815260200160002060008360ff1660ff16815260200190815260200160002060000160009054906101000a900460ff16905092915050565b60008083836040516020016103239291906105bd565b6040516020818303038152906040528051906020012060001c905060008190506004816103509190610622565b9250505092915050565b600080fd5b600060ff82169050919050565b6103758161035f565b811461038057600080fd5b50565b6000813590506103928161036c565b92915050565b600080604083850312156103af576103ae61035a565b5b60006103bd85828601610383565b92505060206103ce85828601610383565b9150509250929050565b6103e18161035f565b82525050565b60008115159050919050565b6103fc816103e7565b82525050565b600060408201905061041760008301856103d8565b61042460208301846103f3565b9392505050565b600060208201905061044060008301846103d8565b92915050565b7f4e487b7100000000000000000000000000000000000000000000000000000000600052601160045260246000fd5b60006104808261035f565b915060ff820361049357610492610446565b5b600182019050919050565b600082825260208201905092915050565b7f496e76616c69642063656c6c20636f6f7264696e617465730000000000000000600082015250565b60006104e560188361049e565b91506104f0826104af565b602082019050919050565b60006020820190508181036000830152610514816104d8565b9050919050565b7f43656c6c206973206e6f74206f63637570696564000000000000000000000000600082015250565b600061055160148361049e565b915061055c8261051b565b602082019050919050565b6000602082019050818103600083015261058081610544565b9050919050565b60008160f81b9050919050565b600061059f82610587565b9050919050565b6105b76105b28261035f565b610594565b82525050565b60006105c982856105a6565b6001820191506105d982846105a6565b6001820191508190509392505050565b6000819050919050565b7f4e487b7100000000000000000000000000000000000000000000000000000000600052601260045260246000fd5b600061062d826105e9565b9150610638836105e9565b925082610648576106476105f3565b5b82820690509291505056fea26469706673582212208ff4d25aac9bdfa99517501b09ab4c467f74e0bec5f9e1a7f06fcc85cf707d9264736f6c63430008130033",
  "linkReferences": {},
  "deployedLinkReferences": {}
}